:1009900064697374616E63653A2025642C52616EDC
:1009A00067655374617475733A202562642C4D6FCA
:1009B00064653A202562642C54696D653A2025628D
:0809C000640D0A0000000000B4
:0409F6008F4E8D4F44
:1009FA0078507C007D007BFF7A0979C47E007F04F1
:100A0A001204527550A5854E51854F527B007A00CB
:070A1A0079507D0402093D43
:0B001600EF1FAC0670011E4C70F622BC
:1007AE00E4F546F547F548F549F54AF54BF54CF5B0
:1007BE004D7F807E25FDFC1209C87F107E2712001A
:1007CE00167D017F651209F6E56C60FCE4F546F5D1
:1007DE0047E5702404FFE433FEC3E5479FEE6480D3
:1007EE00F8748098500E746D2547F8E62546F54648
:1007FE00054780DD746D2547F8E665467034E57172
:10080E00F54CE572F54DE5735403F54BE573131393
:10081E005403F54AE573C4540FF5497BFF7A097901
:10082E0090854C51854D52F553854B54854A551242
:07083E000088E4F56C8091D5
:100A2100016B00016200086300000000000000008B
:0300130002000FD9
:01000F0032BE
:0300230002070DC4
:10070D00C0E0C0F0C083C082C0D075D000C000C0B2
:0D071D0001C002C003C004C005C006C00733
:10072A00754500309905C29975750030985BAF62BE
:10073A00056274632FF8A699C298E563645A600348
:10074A00756200E562B40209E564645A6003756281
:10075A0000E562D394034031E5662405FFE433FEE5
:10076A00E562B50724E4B50620E56524EB7017E5D4
:10077A006C7013786D7C00FDFB7A007963FE7F084C
:09078A00120452756C0175620045
:10079300D007D006D005D004D003D002D001D000BA
:0B07A300D0D0D082D083D0F0D0E03264
:100A420000000000000000000000000000000000A4
:0E0A5200000000000000000000000000000096
:100A3100017500016C00086D00000000000000005D
:1009C8008F518E508D4F8C4E759850438920AB5166
:1009D800AA50A94FA84EE47F807E70FDFC12054CFA
:0E09E800EFF404F58DF58B43884043A8902270
:0C000300E57570FC8F997575017F002277
:06093D008B548A55895617
:10094300E4F557E557C39D5043ED14FFE557C39FA7
:100953005022AB54AA55A9568557827583001204B9
:1009630078FFED75830024FFF582E58334FFF5837B
:10097300EF1204A5AB54AA55A956AF5705578F825A
:0C098300758300120478FF12000380B797
:01098F002245
:0808D1008B228A2389248D2566
:1008D90078277C007D007BFF7A0A79427E007F1EA3
:1008E900120452E4FF0F2427F8765A0F74272401C3
:1008F900F8765A0F74272402F8A6260F74272403C2
:10090900F8A625E4FEEEC39525501BAB22AA23A920
:10091900248E82758300120478FDAC070F74272C8E
:10092900F8A6050E80DF7B007A007927E5252405E6
:04093900FD02093D75
:08066B008B088A09890A8D0B36
:10067300E4F51AFDE50B75F002A42405FFE435F05B
:10068300FE7B007A00790D1205DEAF1A051A740D90
:100693002FF8765AAF1A051A740D2FF8765AAF1A37
:1006A300051A740D2FF8A60CE50B25E0FFAE1A050D
:1006B3001A740D2EF8A607E4FDEDC3950B503BAB62
:1006C30008AA09A90A75F002EDA4F58285F0831240
:1006D30004D8E5F0FFAE1A051A740D2EF8A60775B7
:1006E300F002EDA4F58285F0831204D8FFAE1A055B
:1006F3001A740D2EF8A6070D80BF7B007A00790DC2
:0A070300E50B25E02405FD02093D89
:03000000020845AE
:0C084500787FE4F6D8FD75817502088C00
:10038200E709F608DFFA8046E709F208DFFA803E5D
:1003920088828C83E709F0A3DFFA8032E309F6084A
:1003A200DFFA8078E309F208DFFA807088828C83B2
:1003B200E309F0A3DFFA806489828A83E0A3F60866
:1003C200DFFA805889828A83E0A3F208DFFA804C40
:1003D20080D280FA80C680D4806980F28033801017
:1003E20080A680EA809A80A880DA80E280CA803380
:1003F20089828A83ECFAE493A3C8C582C8CCC583F8
:10040200CCF0A3C8C582C8CCC583CCDFE9DEE780C7
:100412000D89828A83E493A3F608DFF9ECFAA9F046
:10042200EDFB2289828A83ECFAE0A3C8C582C8CC9C
:10043200C583CCF0A3C8C582C8CCC583CCDFEADEB5
:10044200E880DB89828A83E493A3F208DFF980CC17
:1004520088F0EF60010E4E60C388F0ED2402B40410
:100462000050B9F582EB2402B4040050AF232345B7
:0604720082239003D27307
:10047800BB010CE58229F582E5833AF583E0225039
:1004880006E92582F8E622BBFE06E92582F8E22283
:0D049800E58229F582E5833AF583E493229D
:1004A500BB010FF8E58229F582E5833AF583E0285B
:1004B500F0225009C58229F8E58226F622BBFE09FD
:1004C500C58229F8E22582F222F8EA2583F583E937
:0304D50093282247
:1004D800BB0110E58229F582E5833AF583E0F5F062
:1004E800A3E0225009E92582F886F008E622BBFE3F
:1004F8000AE92582F8E2F5F008E222E5832AF58385
:08050800E993F5F0A3E9932249
:1005100075F008758200EF2FFFEE33FECD33CDCCA2
:1005200033CCC58233C5829BED9AEC99E582984025
:100530000CF582EE9BFEED9AFDEC99FC0FD5F0D602
:10054000E4CEFBE4CDFAE4CCF9A88222B800C1B92C
:100550000059BA002DEC8BF084CFCECDFCE5F0CB6A
:10056000F97818EF2FFFEE33FEED33FDEC33FCEBA3
:1005700033FB10D703994004EB99FB0FD8E5E4F95E
:10058000FA227818EF2FFFEE33FEED33FDEC33FC4B
:10059000C933C910D7059BE99A4007EC9BFCE99A3F
:1005A000F90FD8E0E4C9FAE4CCFB2275F010EF2F84
:1005B000FFEE33FEED33FDCC33CCC833C810D70784
:1005C0009BEC9AE899400AED9BFDEC9AFCE899F8BF
:0E05D0000FD5F0DAE4CDFBE4CCFAE4C8F92252
:10002600E55D2451F8E6055D22784E3007027851E9
:10003600E475F00112063502060A2000EB7F2ED287
:10004600008018EF540F2490D43440D4FF30040BB2
:10005600EF24BFB41A0050032461FFE55E60021569
:100066005E0561E5617002056030070D784EE47546
:10007600F001120635EF0206230200037403D207CD
:100086008003E4C207F55D8B4E8A4F8950E4F55E26
:10009600F560F561E55E60077F2012006180F57509
:1000A6005FFFC201C200C202C203C205C206C20885
:1000B60012002FFF700D3007057F00120072AF612E
:1000C600AE6022B4255FC2D5C20412002FFF24D031
:1000D600B40A00501A75F00A785E30D50508B6FFE6
:1000E6000106C6A426F620D5047002D20380D924C0
:1000F600CFB41A00EF5004C2E5D204020272D20154
:1001060080C6D20080C0D20280BCD2D580BAD205C9
:1001160080B47F201200612002077401B55E0040A2
:10012600F1120026FF12006102009AD208D2068060
:1001360095120026FB120026FA120026F94A4B7089
:100146000679437A037BFF20022EE55E602A7E0055
:100156008E8275830012047860060EEE655F70F07D
:10016600C2D5EBC0E0EAC0E0E9C0E0EE1202B9D0C9
:10017600E0F9D0E0FAD0E0FB12060AFF60AAEBC075
:10018600E0EAC0E0E9C0E0120061D0E02401F9D065
:10019600E03400FAD0E0FBE55F0460DCD55FD9808F
:1001A600877BFF7A0279B5D202809C79108002792A
:1001B60008C206C2088008D2D5790A8004790AC224
:1001C600D5E55F047002F55FE4FAFDFEFF12002636
:1001D600FC7B08200113120026FD7B1030000A125A
:1001E6000026FE120026FF7B20EC3382D592D550E6
:1001F60013C3E43000069FFFE49EFEE42001039D46
:10020600FDE49CFCE4CBF8C201EC700CCFCECDCC67
:10021600E824F8F870F38017C3EF33FFEE33FEEDF2
:1002260033FDEC33FCEB33FB994002FB0FD8E9EBD3
:10023600300105F8D0E0C448B201C0E00AEC4D4EEA
:100246004F78207B0070C2EAB55F0040BCC0E01268
:1002560002BBD0F0D0E0200104C4C0E0C4B201C0AB
:10026600F012004AD0F0D5F0EB02009A12064501D2
:10027600375301B15801084C01044201B54F01BD85
:0F0286004401BD49011D4301C35501A74601A70E
:100295004501A747036350010C2D01102E01332B97
:1002A500011423013120034C2A00CC480000012B06
:1002B5003F3F3F00790AA2D5200314300509B91044
:1002C500020404B9080104A2D52006025001042045
:1002D50002689202B55E005034C0E07F20300319F9
:1002E5007F30A20272067205500F120312C202C2BB
:1002F50006C205C2087F30800F300503E9C0E01251
:100305000061300503D0E0F9D0E0B55ECC300517CB
:100315007F30B9100C1200617F583004077F788058
:1003250003B908031200613002057F2D0200617FC9
:10033500202008F87F2B2006F322920280CF286E1A
:10034500756C6C2900D2011200263001F8C20178C3
:100355005E30D50108F60200CC2D504349581200F5
:10036500262403B405004001E490035E9312005275
:0D037500743A120052D203755E040201B109
:1005DE00EF4E6012EF60010EEDBB010B89828A8334
:1005EE00F0A3DFFCDEFA2289F05007F709DFFCA941
:0C05FE00F022BBFEFCF309DFFCA9F02298
:100851000207AEE493A3F8E493A34003F68001F208
:1008610008DFF48029E493A3F85407240CC8C333A8
:10087100C4540F4420C8834004F456800146F6DF77
:10088100E4800B0102040810204080900A21E47EDC
:10089100019360BCA3FF543F30E509541FFEE4936C
:1008A100A360010ECF54C025E060A840B8E493A333
:1008B100FAE493A3F8E493A3C8C582C8CAC583CA5E
:1008C100F0A3C8C582C8CAC583CADFE9DEE780BE16
:010A410000B4
:10060A00BB010689828A83E0225002E722BBFE02EE
:09061A00E32289828A83E4932221
:10062300BB010689828A83F0225002F722BBFE01B6
:02063300F322B0
:10063500FAE6FB0808E6F925F0F618E6CA3AF622C6
:10064500D083D082F8E4937012740193700DA3A344
:1006550093F8740193F5828883E473740293686058
:06066500EFA3A3A380DF58
:00000001FF
