:0D00160000000000000000000000000000DD
:0612E60001630001640039
:101205008F2A8E298D288C27759850438920AB2AE3
:10121500AA29A928A827E47F807E70FDFC1207A0D3
:10122500EFF404F58DF58B43884043B81043A8903F
:011235002296
:0C134700E56370FC8F997563017F002244
:061062008B5B8A5C895DD6
:10106800E4F55EE55EC39D5043ED14FFE55EC39F66
:101078005022AB5BAA5CA95D855E8275830012066F
:1010880034FFED75830024FFF582E58334FFF58393
:10109800EF120661AB5BAA5CA95DAF5E055E8F824D
:0C10A800758300120634FF12134780B756
:0110B4002219
:080F39008B438A4489458D4673
:100F410078487C007D007BFF7A0079167E007F0D5A
:100F51001205F5E4FF0F2448F8765A0F744824016E
:100F6100F8765A0F74482402F8A6470F74482403F0
:100F7100F8A646E4FEEEC39546501BAB43AA44A92E
:100F8100458E82758300120634FDAC070F74482C20
:100F9100F8A6050E80DF7B007A007948E546240536
:040FA100FD021062DB
:080D11008B088A09890A8D0B89
:100D1900E4F51AFDE50B75F002A42405FFE435F0AE
:100D2900FE7B007A00790D120876AF1A051A740D48
:100D39002FF8765AAF1A051A740D2FF8765AAF1A8A
:100D4900051A740D2FF8A60CE50B25E0FFAE1A0560
:100D59001A740D2EF8A607E4FDEDC3950B503BABB5
:100D690008AA09A90A75F002EDA4F58285F0831293
:100D7900070DE5F0FFAE1A051A740D2EF8A60775D2
:100D8900F002EDA4F58285F08312070DFFAE1A0576
:100D99001A740D2EF8A6070D80BF7B007A00790D15
:0A0DA900E50B25E02405FD021062B1
:0812EC00015F00036000000037
:03000B00021315C8
:10131500C0E0E51C451B6008E51C151C7002151B8B
:03132500D0E032E3
:03001300020008E0
:0100080032C5
:0300230002114B7C
:0D114B00C0E0C0D075D000C000C006C007D5
:10115800E4309904C299F563309822AE5F055F7454
:10116800602EF8A699C298E560B4A503D38001C3A0
:0D1178004003755F00E55FB40303755F0081
:0B118500D007D006D000D0D0D0E03260
:020006000000F8
:030003008F2D221C
:10125D00D2B77F01120003D2B612000320B7021FCE
:10126D0022C2B77F0112000330B7021F22C2B67F20
:05127D00011200032234
:10132800C2B7C2B67F01120003D2B6120003D2B709
:011338002292
:10130000BF0104D2B78002C2B7D2B67F0112000378
:05131000C2B60200035B
:1012A700E4FFD2B7D2B630B7040FBF02F930B705A3
:0F12B700C2B67F00227F01120003C2B6120003ED
:0112C6002205
:02128200AE07B5
:10128400C2B6E4FDEE30E704D2B78002C2B7D2B6EC
:101294007F01120003C2B6120003EE25E0FE0DBD6D
:0212A40008E25E
:0112A6002225
:10123600E4FED2B77F01120003FDEE25E0FED2B632
:1012460030B7034306017F01120003C2B612000342
:061256000DBD08E6AF0625
:01125C00226F
:10119000AE07AC03AB0512125DEF70028025AF06FF
:1011A0001212821212A7EF70028018AF031212827D
:1011B0001212A7EF7002800BAF041212821212A754
:0E11C000EF7005121328FF221213287F012260
:100E3F008D568B578A588959AC0712125DEF700285
:100E4F00802EAF041212821212A7EF70028021AF10
:100E5F00561212821212A7EF7002801412125DEF57
:100E6F007002800CEC04FF1212821212A7EF7005B1
:100E7F00121328FF22E55A14601E121236AB5705C3
:100E8F0059E559AA587002055814F9EF120694E45F
:100E9F00FF121300155A80DD121236AB57AA58A94C
:100EAF0059EF1206947F011213001213287F0122AB
:1011CE00AE077F2812000312125DEF7002801DAF72
:1011DE00061212821212A7EF700280107F281200E0
:1011EE00037F511212821212A7EF7005121328FFFD
:0711FE00221213287F0122D9
:080FA5008F278B288A29892A75
:100FAD00782B7C007D007BFF7A0079067E007F0226
:100FBD001205F512125DEF7002800BAF271212822F
:100FCD001212A7EF7005121328FF227F32120003B1
:100FDD001212368F2BE4FF1213001212368F2C7F54
:100FED0001121300121328E52BFFE52CAB28AA29BB
:0A0FFD00A92ACF8FF01207457F01EB
:0110070022C6
:10110200AC05AE0712125DEF70028032AF0612120A
:10111200821212A7EF700280257FAA121282121287
:10112200A7EF700280187FA51212821212A7EF7029
:1011320002800BAF041212821212A7EF7005121373
:0911420028FF221213287F01226C
:0210B500AE0784
:1010B700EDC454F04BFC12125DEF70028032AF06A4
:1010C7001212821212A7EF700280257F5A12128223
:1010D7001212A7EF700280187F551212821212A700
:1010E700EF7002800BAF041212821212A7EF700585
:0A10F700121328FF221213287F01B4
:0111010022CB
:0B12F400011D00021B0000021E000094
:101008008E278F28AC27AD28E41202C97B7C7AF2A0
:101018007930784112011EE4FBFA794078411202D6
:1010280027A804A905AA06AB07E4FFFE7D807C4338
:101038001200291203028F1DAC27AD287E037FE81A
:101048001206B88E1E8F1F438902851D8C851D8A46
:0A105800C28C53B8FDD2A9D2AF221A
:1012C700AB07AA06AC1EAD1F1206A68E1B8F1CD23B
:0F12D7008CE51C451B70FAC28C851D8AA28D22E6
:0E13390064696174616E63653A25640D0A0093
:100EBF00E4F522F5237524017F807E25FDFC1212B7
:100ECF00057FC87E00121008AB247D027FE0121050
:100EDF00B5E52414601214601714601C2403701EEF
:100EEF007522007523648016752200752396800E77
:0E0EFF007522007523FA800675220175235EA8
:100F0D00E4F525F526FB7A0079257FE1120FA57F03
:100F1D00E01211CE7BFF7A13793985252A85262B90
:0A0F2D00120904AF23AE221212C70E
:020F370080D464
:1000260002036EE86480F8E933E83360110460F097
:10003600ED33EC337009E8FCE9FDEAFEEBFF220440
:1000460060DED3EB9FEA9EE99DE8C2E78CF0C2F73B
:1000560095F0400CE8CCF8E9CDF9EACEFAEBCFFB07
:1000660012033985D0F05804700320D5B3E8047024
:10007600075002B2D502037892D5EC0460F7E4CCBF
:10008600C0E0C398F8603B94186008400DD0E0FBD0
:10009600020350E4FBFAC9FC8028E830E406E4C910
:1000A600FBE4CAFCE830E305E4C9CACBFCE8540724
:1000B6006010F8C3E913F9EA13FAEB13FBEC13FC2F
:1000C600D8F130F52FC3E49CFCEF9BFFEE9AFEEDD2
:1000D60099FDD0E0FBEF4E4D4C701222DB0302037C
:1000E60075EC2CFCEF33FFEE33FEED33FDED30E720
:1000F600EB020350EF2BFFEE3AFEED39FDD0E0FBAD
:1001060050130BBB0003020378ED13FDEE13FEEF55
:0801160013FFEC13FC0203507F
:10011E00EC4D6011E8497017ED33EC3304600DE4DB
:10012E00FCFFFEFD22E933E8330470F802036E1281
:10013E00033958046009E4CC248150062850090282
:10014E000378284003020375C0E0EB4A7044B9807F
:10015E0006D0E0FB020364EF4E701CBD8008EBFF7F
:10016E00EAFEE9FD80EBE98DF0A4FEE5F002020760
:10017E00E9CDF9EAFEEBFFEF89F0A4FCE5F0CE89BC
:10018E00F0A42EFFE435F0CD89F0A42DFEE435F079
:10019E008067EF4E7005BD80D780C3EF8BF0A4ACA7
:1001AE00F0EE8BF0A42CFCE435F0F8EF8AF0A42CE2
:1001BE00E5F038FCE433CB8DF0A42CFCE5F03BF8F5
:1001CE00EE8AF0A42CFCE5F038F8E433CF89F0A4E5
:1001DE002CFCE5F038CF3400CE89F0A42FFFE5F0EB
:1001EE003EFEE433C98DF0A42EFEE5F039CD8AF043
:1001FE00A42FFFE5F03EFEE43DFD33D0E0FB5007BB
:10020E000BBB000F020378EC2CFCEF33FFEE33FE3A
:06021E00ED33FD02035068
:10022400020378EC5D046005E85904700302036E70
:10023400120339580460F6EC4860F2EC7004FDFED9
:10024400FF22C860DB2481C85009C39860025006AD
:100254000203759850CAF582E9294B4A7005AB82AE
:1002640002036475F0007C1A7880C3EF9BEE9AED6C
:1002740099400DC3EF9BFFEE9AFEED99FDE842F025
:10028400DC23ACF0D0E0FFD0E0FED0E0FDAB822078
:10029400E7101BEB60BAEC2CFCEF33FFEE33FEED02
:1002A40033FD020350E803F830E705C0F075F000B1
:1002B400EF2FFFEE33FEED33FD40B830E7C280AAE6
:1002C40075F020800E75F010800575F0087D007EB5
:1002D400007F003392D530D503120832EC3340103E
:1002E400EF33FFEE33FEED33FDEC33FCD5F0ED22BE
:0E02F400E5F0247EA2D513CC92E7CDCEFF22FA
:10030200EDD2E7CD33EC3392D524814006E4FFFEF3
:10031200FDFC22FCE4CFCECDCC24E0501174FF8052
:10032200EDC3CC13CCCD13CDCE13CECF13CF0470EF
:07033200F030D5DE020832B5
:1008A200E53E242AF8E6053E227827300702782A18
:1008B200E475F00112084002061B2000EB7F2ED2E5
:1008C200008018EF540F2490D43440D4FF30040B2E
:1008D200EF24BFB41A0050032461FFE53F60021504
:1008E2003F0542E5427002054130070D7827E47565
:1008F200F001120840EF0206940213477403D20774
:100902008003E4C207F53E8B278A288929E4F53F54
:10091200F541F542E53F60077F201208DD80F5755D
:1009220040FFC201C200C202C203C205C206C2081F
:100932001208ABFF700D3007057F001208EEAF42C0
:10094200AE4122B4255FC2D5C2041208ABFF24D047
:10095200B40A00501A75F00A783F30D50508B6FF80
:100962000106C6A426F620D5047002D20380D9243B
:10097200CFB41A00EF5004C2E5D204020BDBD2015D
:1009820080C6D20080C0D20280BCD2D580BAD20545
:1009920080B47F201208DD2002077401B53F0040B9
:1009A200F11208A2FF1208DD020916D208D206804F
:1009B200951208A2FB1208A2FA1208A2F94A4B7079
:1009C2000679D27A0C7BFF20022EE53F602A7E0058
:1009D2008E8275830012063460060EEE654070F05A
:1009E200C2D5EBC0E0EAC0E0E9C0E0EE120C3BD0B9
:1009F200E0F9D0E0FAD0E0FB12061BFF60AAEBC0E0
:100A0200E0EAC0E0E9C0E01208DDD0E02401F9D05C
:100A1200E03400FAD0E0FBE5400460DCD540D98048
:100A220087D20280A2120C1E60F7E5407001041208
:100A32000383A940600DE540600914F540120CC51E
:100A4200EF60F3EA30E702F404C3995077EAF42541
:100A5200400430E701E404F540800D120C1E60C131
:100A6200EA05402540120383EA783DF630E701E4C7
:100A7200254004D5400420050114120C3BE4C0E0DB
:100A8200120CC5783DE6601320E70714F61208C57C
:100A9200802204F6D0E014C0E07F001208C5E540D1
:100AA20060071208BC1540800B3005031208BCD049
:100AB200E0020916D0E00480C5120C1E60A0E540D9
:100AC20004120383783DEAF6E54020050260010442
:050AD2002404120C3B9E
:100AD70074FF04C0E0120CC51208C5E540200502EA
:100AE70060031208BCD0E0B540E87F451208CF7814
:100AF7003DE67F2B30E7047F2DF404C0E01208DDCC
:100B0700D0E075F00A84C0F01208C6D0E01208C61B
:100B1700020916791080027908C206C2088008D235
:100B2700D5790A8004790AC2D5E540047002F540F8
:100B3700E4FAFDFEFF1208A2FC7B0820011312084D
:100B4700A2FD7B1030000A1208A2FE1208A2FF7B4A
:100B570020EC3382D592D55013C3E43000069FFFB3
:100B6700E49EFEE42001039DFDE49CFCE4CBF8C277
:100B770001EC700CCFCECDCCE824F8F870F38017D9
:100B8700C3EF33FFEE33FEED33FDEC33FCEB33FB0A
:100B9700994002FB0FD8E9EB300105F8D0E0C448D3
:100BA700B201C0E00AEC4D4E4F78207B0070C2EADC
:100BB700B5400040BCC0E0120C3DD0F0D0E02001B1
:100BC70004C4C0E0C4B201C0F01208C6D0F0D5F02A
:100BD700EB02091612085009B3530B1A5809844C33
:100BE7000980420B1E4F0B26440B26490999430BDC
:100BF7002C550A5D460ABB450A27470CF25009885F
:100C07002D098C2E09AF2B09902309AD200CDB2A67
:100C1700094848000009A7E540B4FF0375400612DC
:100C270008A2FC1208A2FD1208A2FE1208A2FF7871
:100C3700360203B2790AA2D5200314300509B91088
:100C4700020404B9080104A2D520060250010420B9
:100C570002689202B53F005034C0E07F203003198C
:100C67007F30A20272067205500F120C94C202C2A4
:100C770006C205C2087F30800F300503E9C0E012C5
:100C870008DD300503D0E0F9D0E0B53FCC300517DB
:100C97007F30B9100C1208DD7F583004077F788049
:100CA70003B908031208DD3002057F2D0208DD7F36
:100CB700202008F87F2B2006F322920280CF7F00A6
:100CC700B4070050052436F8E6FF22286E756C6CD1
:100CD7002900D2011208A23001F8C201783F30D5AD
:100CE7000108F60209482D504349581208A2240367
:100CF700B405004001E4900CED931208CE743A124B
:0A0D070008CED203753F04020B1A58
:10033900E9D2E7C933E833F892D5EDD2E7CD33EC0A
:0703490033FC5002B2D52283
:10035000EC30E7100FBF000C0EBE00080DBD00040E
:100360000BEB6014A2D5EB13FCED92E7FD2274FFBA
:10037000FCFDFEFF22E480F8A2D574FF13FC7D8013
:03038000E480EF27
:10038300F920E72824F950037907E4F42402FB1841
:10039300DBFDE624FB5014E9600DE4F618E604F6F1
:0F03A300B40A08E4F6D9F57401F60A22C2D5228D
:1003B200ED33EC3392D5FA602AB4FF33EDC2E77B1A
:1003C200FF60067A0379D7E4227A0379E020D50424
:1003D2007A0379DB224E614E002B494E46002D49AD
:1003E2004E4600E47A08F608DAFC7B00740722E83D
:1003F200C0E0ECC0E0EDC0E0EEC0E0EFC0E0EA75C6
:10040200F010A4CAABF075F04DA42BFBE435F0FC60
:10041200EA2410FAEB34C5FBEC34D9FCEDC2E7FF59
:1004220075F056A4F42411C5F0F434C58FF0A42A53
:10043200E5F03BE43CF620E7141204E5D0E0FFD0FF
:10044200E0FED0E0FDD0E0FC1202278014F404129A
:1004520004E5D0E0FFD0E0FED0E0FDD0E0FC1201E8
:100462001ED0E0F8E6FAEDD2E7CD33EC332482FB7E
:10047200E4C3CF33CFCE33CECD33CD33DBF37B07E3
:1004820075F00A846004F6081B0AE5F0F6088FF09E
:10049200740AA4FFACF08EF0740AA42CFEACF050E7
:1004A200010C8DF0740AA42CFDE435F0F608DBDEB5
:0304B200740722AA
:1004B5003F8000004120000042C80000447A00004F
:1004C500461C400047C35000497424004B189680D1
:1004D5004CBEBC205A0E1BCA6753C21C749DC5AEC8
:1004E500FB60065407601C2323120513EB54386088
:1004F500091204FF12050E12011EECF8EDF9EEFAD1
:10050500EFCB22EB12050E80F1543803241C900426
:10051500B5FE93FC0EEE93FD0EEE930ECE93FF22E9
:03000000020DB33B
:0C0DB300787FE4F6D8FD758164020DFA2B
:10052500E709F608DFFA8046E709F208DFFA803EB8
:1005350088828C83E709F0A3DFFA8032E309F608A5
:10054500DFFA8078E309F208DFFA807088828C830D
:10055500E309F0A3DFFA806489828A83E0A3F608C1
:10056500DFFA805889828A83E0A3F208DFFA804C9B
:1005750080D280FA80C680D4806980F28033801072
:1005850080A680EA809A80A880DA80E280CA8033DB
:1005950089828A83ECFAE493A3C8C582C8CCC58353
:1005A500CCF0A3C8C582C8CCC583CCDFE9DEE78023
:1005B5000D89828A83E493A3F608DFF9ECFAA9F0A2
:1005C500EDFB2289828A83ECFAE0A3C8C582C8CCF8
:1005D500C583CCF0A3C8C582C8CCC583CCDFEADE11
:1005E500E880DB89828A83E493A3F208DFF980CC73
:1005F50088F0EF60010E4E60C388F0ED2402B4046C
:100605000050B9F582EB2402B4040050AF23234512
:06061500822390057573BD
:10061B00BB010689828A83E0225002E722BBFE02DD
:09062B00E32289828A83E4932210
:10063400BB010CE58229F582E5833AF583E022507B
:1006440006E92582F8E622BBFE06E92582F8E222C5
:0D065400E58229F582E5833AF583E49322DF
:10066100BB010FF8E58229F582E5833AF583E0289D
:10067100F0225009C58229F8E58226F622BBFE093F
:10068100C58229F8E22582F222F8EA2583F583E979
:0306910093282289
:10069400BB010689828A83F0225002F722BBFE0145
:0206A400F3223F
:1006A600EF8DF0A4A8F0CF8CF0A428CE8DF0A42E68
:0206B600FE2222
:1006B800BC000BBE0029EF8DF084FFADF022E4CC26
:1006C800F875F008EF2FFFEE33FEEC33FCEE9DECEF
:1006D800984005FCEE9DFE0FD5F0E9E4CEFD22ED35
:1006E800F8F5F0EE8420D21CFEADF075F008EF2F7F
:1006F800FFED33FD4007985006D5F0F222C398FD70
:050708000FD5F0EA220C
:10070D00BB0110E58229F582E5833AF583E0F5F02A
:10071D00A3E0225009E92582F886F008E622BBFE07
:10072D000AE92582F8E2F5F008E222E5832AF5834D
:08073D00E993F5F0A3E9932212
:10074500BB010A89828A83F0E5F0A3F0225006F7FF
:0F07550009A7F01922BBFE06F3E5F009F31922FC
:1007640075F008758200EF2FFFEE33FECD33CDCC4C
:1007740033CCC58233C5829BED9AEC99E5829840CF
:100784000CF582EE9BFEED9AFDEC99FC0FD5F0D6AC
:10079400E4CEFBE4CDFAE4CCF9A88222B800C1B9D6
:1007A4000059BA002DEC8BF084CFCECDFCE5F0CB14
:1007B400F97818EF2FFFEE33FEED33FDEC33FCEB4D
:1007C40033FB10D703994004EB99FB0FD8E5E4F908
:1007D400FA227818EF2FFFEE33FEED33FDEC33FCF5
:1007E400C933C910D7059BE99A4007EC9BFCE99AE9
:1007F400F90FD8E0E4C9FAE4CCFB2275F010EF2F2E
:10080400FFEE33FEED33FDCC33CCC833C810D7072D
:100814009BEC9AE899400AED9BFDEC9AFCE899F868
:0E0824000FD5F0DAE4CDFBE4CCFAE4C8F922FB
:0E083200C3E49FFFE49EFEE49DFDE49CFC22D7
:10084000FAE6FB0808E6F925F0F618E6CA3AF622B9
:10085000D083D082F8E4937012740193700DA3A337
:1008600093F8740193F5828883E47374029368604B
:06087000EFA3A3A380DF4B
:10087600EF4E6012EF60010EEDBB010B89828A8399
:10088600F0A3DFFCDEFA2289F05007F709DFFCA9A6
:0C089600F022BBFEFCF309DFFCA9F022FD
:100DBF00020EBFE493A3F8E493A34003F68001F27D
:100DCF0008DFF48029E493A3F85407240CC8C33335
:100DDF00C4540F4420C8834004F456800146F6DF04
:100DEF00E4800B01020408102040809012E6E47E9C
:100DFF00019360BCA3FF543F30E509541FFEE493F9
:100E0F00A360010ECF54C025E060A840B8E493A3BF
:100E1F00FAE493A3F8E493A3C8C582C8CAC583CAEA
:100E2F00F0A3C8C582C8CAC583CADFE9DEE780BEA2
:0112FF0000EE
:00000001FF
